:1000000012C02CC02BC02AC029C028C09BC126C04A
:1000100025C024C023C022C021C020C01FC01EC0D4
:100020001DC01CC01BC011241FBECFE5D4E0DEBF25
:10003000CDBF10E0A0E6B0E0E6E7F5E002C0059035
:100040000D92A236B107D9F720E0A2E6B0E001C0D8
:100050001D92AA36B207E1F7BCD18BC2D1CF29E0FD
:1000600080E02150B1F08695C598BD9A34E03A956C
:10007000F1F7BD9898E39A95F1F796B395FB992718
:1000800090F934EB3A95F1F7979599279795892B45
:10009000E8CF0895CF92DF92EF92FF920F931F93D4
:1000A000CF93DF932AE030E0C0E1D0E008E010E039
:1000B00084E0E82EF12C92E0C92ED12C80916000D2
:1000C0009091610097FD35C182B3807F82BB88B378
:1000D0008C7F88BB82B38F7382BB809160009091CC
:1000E0006100B9011FD2CB01BE011CD2089708974D
:1000F00008F4969A8091600090916100B90112D243
:10010000CB01B8010FD20497049708F4979A809115
:10011000600090916100B90105D2CB01B70102D214
:100120000297029708F4C09A809160009091610054
:10013000B901F8D1CB01B601F5D1019709F4C19A03
:10014000939A8FE697E10197F1F700C0000082B320
:10015000807F82BB88B38C7F88BB82B38F7382BB66
:100160008091600090916100B901DCD1BE01DAD1CB
:100170000897089708F4969A809160009091610022
:10018000B901D0D1B801CED10497049708F4979A59
:100190008091600090916100B901C4D1B701C2D1D2
:1001A0000297029708F4C09A8091600090916100D4
:1001B000B901B8D1B601B6D1019709F4C19A929AA2
:1001C0008FE697E10197F1F700C0000082B3807FCE
:1001D00082BB88B38C7F88BB82B38F7382BBE09174
:1001E0006000F0916100EE0FFF1FEE59FF4F80811C
:1001F0009181B90197D1CB01BE0194D1089708979D
:1002000008F4969AE0916000F0916100EE0FFF1FF4
:10021000EE59FF4F80819181B90184D1CB01B801A2
:1002200081D10497049708F4979AE0916000F091C7
:100230006100EE0FFF1FEE59FF4F80819181B901E0
:1002400071D1CB01B7016ED10297029708F4C09A21
:10025000E0916000F0916100EE0FFF1FEE59FF4F3B
:1002600080819181B9015ED1CB01B6015BD101974B
:1002700009F4C19A919A8FE697E10197F1F700C0CE
:10028000000082B3807F82BB88B38C7F88BB82B33F
:100290008F7382BBE0916000F0916100EE0FFF1F51
:1002A000EE59FF4F80819181B9013CD1BE013AD115
:1002B0000897089708F4969AE0916000F091610021
:1002C000EE0FFF1FEE59FF4F80819181B9012AD1B6
:1002D000B80128D10497049708F4979AE091600038
:1002E000F0916100EE0FFF1FEE59FF4F8081918169
:1002F000B90118D1B70116D10297029708F4C09A34
:10030000E0916000F0916100EE0FFF1FEE59FF4F8A
:1003100080819181B90106D1B60104D1019709F418
:10032000C19A909A8FE697E10197F1F700C000001B
:10033000C5CEDF91CF911F910F91FF90EF90DF908D
:10034000CF9008951F920F920FB60F9211242F9302
:100350003F934F935F936F937F938F939F93AF934D
:10036000BF93EF93FF93F89481B38F6081BB82B307
:100370008F6082BB87B3836087BB81B3806C81BB96
:1003800088B38C7F88BB82B38F7382BB80916000FF
:100390009091610001979093610080936000789440
:1003A00079DE809160009091610097FF01C0F89420
:1003B000FF91EF91BF91AF919F918F917F916F913D
:1003C0005F914F913F912F910F900FBE0F901F9013
:1003D0001895F8948EB588608EBD89B7806189BF05
:1003E00087ED8BBD8BE18ABD8EB584608EBDC8E084
:1003F000D0E009E410E0F894D0936100C09360006D
:10040000C59882B3807F82BB88B38C7F88BB82B360
:100410008F7382BBBB9AC39A2FEF8CED9DE6215060
:1004200080409040E1F700C00000C398109369003D
:1004300000936800EFE7FFE422E1E150F040204044
:10044000E1F700C00000C598BD9A8FE995E00197DB
:10045000F1F700C00000BD9890EF9A95F1F786B3D0
:10046000EBEEF4E03197F1F700C0000085FDEBCF33
:1004700089E093E3815081F0C598BD9AF4E0FA9544
:10048000F1F790FDBD98EFEEF0E03197F1F700C085
:100490000000BD989695EECFE2DD90E0909363006A
:1004A00080936200DCDD90E09093650080936400AF
:1004B000D6DD90E09093670080936600D0DD90E0F9
:1004C0009093690080936800CADD90E090936B0080
:1004D00080936A00C4DD90E090936D0080936C007F
:1004E000BEDD90E090936F0080936E00B8DD90E0E9
:1004F00090937100809370007894FFEF2EE984E26E
:10050000F15020408040E1F700C00000F894C39A09
:100510009FEFEEE9F4E29150E040F040E1F700C0D7
:10052000000069CF97FB072E16F4009406D077FDE4
:1005300008D00BD007FC05D03EF4909581959F4FD5
:100540000895709561957F4F0895AA1BBB1B51E1DB
:1005500007C0AA1FBB1FA617B70710F0A61BB70B33
:10056000881F991F5A95A9F780959095BC01CD01D8
:060570000895F894FFCF8E
:0205760004007F
:00000001FF
