:1000000012C019C018C017C016C015C014C013C044
:1000100012C011C010C00FC00EC00DC00CC00BC06C
:100020000AC009C008C011241FBECFE5D4E0DEBF5E
:10003000CDBF02D07FC0E4CF92988A9A8FE797E035
:100040000197F1F700C000008A988FEE90E00197C9
:10005000F1F700C0000020B324708FE896E001970C
:10006000F1F700C0000092988A988299FECF8FE73E
:1000700097E00197F1F700C0000080E090E0829BDC
:100080002BC08BED90E00197F1F700C000008A9A39
:100090008BEA93E00197F1F700C000008A9887EFA0
:1000A00092E00197F1F700C000008299FECF40E294
:1000B00050E080E090E0829B02C088E790E035E06D
:1000C0003A95F1F70000019688379105A4F3415065
:1000D000510979F780EE91E035E03A95F1F70000AB
:1000E0000196803E31E0930754F285E08A95F1F75E
:1000F000000092988A9A95E09A95F1F700002111F4
:100100008A988FEE90E00197F1F700C000008A987E
:1001100092988A9A95E09A95F1F700008A983AE4C5
:100120003A95F1F700C080B380EF8A95F1F780E04F
:0801300090E00895F894FFCF60
:00000001FF
