:1000000012C02CC02BC02AC029C028C080C126C065
:1000100025C024C023C022C021C020C01FC01EC0D4
:100020001DC01CC01BC011241FBECFE5D4E0DEBF25
:10003000CDBF10E0A0E6B0E0E6EFF4E002C005902E
:100040000D92A236B107D9F720E0A2E6B0E001C0D8
:100050001D92A23AB207E1F7A0D14BC2D1CFCF9205
:10006000DF92EF92FF920F931F93CF93DF932AE0DB
:1000700030E0C0E1D0E008E010E084E0E82EF12CB0
:1000800092E0C92ED12C809160009091610097FD83
:1000900035C182B3807F82BB88B38C7F88BB82B33B
:1000A0008F7382BB8091600090916100B901FAD199
:1000B000CB01BE01F7D10897089708F4969A809172
:1000C000600090916100B901EDD1CB01B801EAD196
:1000D0000497049708F4979A8091600090916100CA
:1000E000B901E0D1CB01B701DDD10297029708F445
:1000F000C09A8091600090916100B901D3D1CB0189
:10010000B601D0D1019709F4C19A939A8FE697E18D
:100110000197F1F700C0000082B3807F82BB88B3F3
:100120008C7F88BB82B38F7382BB8091600090917B
:100130006100B901B7D1BE01B5D10897089708F49D
:10014000969A8091600090916100B901ABD1B8019D
:10015000A9D10497049708F4979A80916000909130
:100160006100B9019FD1B7019DD10297029708F4B0
:10017000C09A8091600090916100B90193D1B6015D
:1001800091D1019709F4C19A929A8FE697E101976C
:10019000F1F700C0000082B3807F82BB88B38C7F00
:1001A00088BB82B38F7382BBE0916000F0916100E5
:1001B000EE0FFF1FEE59FF4F80819181B90172D17F
:1001C000CB01BE016FD10897089708F4969AE09189
:1001D0006000F0916100EE0FFF1FEE59FF4F80812C
:1001E0009181B9015FD1CB01B8015CD1049704972B
:1001F00008F4979AE0916000F0916100EE0FFF1F04
:10020000EE59FF4F80819181B9014CD1CB01B701EB
:1002100049D10297029708F4C09AE0916000F091EA
:100220006100EE0FFF1FEE59FF4F80819181B901F0
:1002300039D1CB01B60136D1019709F4C19A919A0F
:100240008FE697E10197F1F700C0000082B3807F4D
:1002500082BB88B38C7F88BB82B38F7382BBE091F3
:100260006000F0916100EE0FFF1FEE59FF4F80819B
:100270009181B90117D1BE0115D10897089708F4EB
:10028000969AE0916000F0916100EE0FFF1FEE5929
:10029000FF4F80819181B90105D1B80103D1049745
:1002A000049708F4979AE0916000F0916100EE0FD6
:1002B000FF1FEE59FF4F80819181B901F3D0B70143
:1002C000F1D00297029708F4C09AE0916000F09193
:1002D0006100EE0FFF1FEE59FF4F80819181B90140
:1002E000E1D0B601DFD0019709F4C19A909A8FE668
:1002F00097E10197F1F700C00000C5CEDF91CF91E3
:100300001F910F91FF90EF90DF90CF9008951F9273
:100310000F920FB60F9211242F933F934F935F9339
:100320006F937F938F939F93AF93BF93EF93FF93BD
:10033000F89481B38F6081BB82B38F6082BB87B337
:10034000836087BB81B3806C81BB88B38C7F88BBA3
:1003500082B38F7382BB809160009091610001979E
:10036000909361008093600097FF04C0789477DEDB
:10037000F89402C0789473DEFF91EF91BF91AF9132
:100380009F918F917F916F915F914F913F912F91AD
:100390000F900FBE0F901F901895F8948EB588603F
:1003A0008EBD89B7806189BF87ED8BBD8BE18ABD2A
:1003B0008EB584608EBD20E230E0F8943093610009
:1003C00020936000C59882B3807F82BB88B38C7F06
:1003D00088BB82B38F7382BBBB9AC39A4FEF5CE238
:1003E00081E391E04150504080409040D9F700C0F7
:1003F0000000C398BD9848E24A95F1F7B599FECF41
:1004000081E895E00197F1F700C0000080E090E0FE
:10041000B59B2AC09CED9A95F1F7BD9A80EC92E0CD
:100420000197F1F700C00000BD9894E09A95F1F7AC
:10043000E2EAF0E012921292B599FECF80E090E0ED
:10044000B59B05C09183808385E690E003C044E0BE
:100450004A95F1F701968436910594F350E0E2361F
:10046000F50741F780EE91E044E04A95F1F70196F7
:10047000803E51E0950764F278948FEF9EE944E264
:10048000815090404040E1F700C00000F894C39ACA
:100490005FEF8EE994E2515080409040E1F700C058
:1004A00000008BCF97FB072E16F4009406D077FD43
:1004B00008D00BD007FC05D03EF4909581959F4F56
:1004C0000895709561957F4F0895AA1BBB1B51E15C
:1004D00007C0AA1FBB1FA617B70710F0A61BB70BB4
:1004E000881F991F5A95A9F780959095BC01CD0159
:0604F0000895F894FFCF0F
:0204F6002000E4
:00000001FF
