:1000000019C033C032C031C030C02FC098C12DC01C
:100010002CC02BC02AC029C028C027C026C025C09C
:1000200024C023C022C036C237C238C239C23AC245
:100030003BC23DC211241FBECFE5D4E0DEBFCDBF21
:1000400010E0A0E6B0E0E6EAF5E002C005900D920F
:10005000A236B107D9F720E0A2E6B0E001C01D92B8
:10006000AA36B207E1F7B2D19CC2CACF9C01BD98B3
:1000700099E0915059F0B599FECF20FFBD9A80E4E8
:100080008A95F1F7BD9835952795F3CF0895CF92CE
:10009000DF92EF92FF920F931F93CF93DF932AE0AB
:1000A00030E0C0E1D0E008E010E084E0E82EF12C80
:1000B00092E0C92ED12C809160009091610097FD53
:1000C00035C182B3807F82BB88B38C7F88BB82B30B
:1000D0008F7382BB8091600090916100B9013AD228
:1000E000CB01BE0137D20897089708F4969A809101
:1000F000600090916100B9012DD2CB01B8012AD2E4
:100100000497049708F4979A809160009091610099
:10011000B90120D2CB01B7011DD20297029708F492
:10012000C09A8091600090916100B90113D2CB0117
:10013000B60110D2019709F4C19A939A8FE697E11C
:100140000197F1F700C0000082B3807F82BB88B3C3
:100150008C7F88BB82B38F7382BB8091600090914B
:100160006100B901F7D1BE01F5D10897089708F4ED
:10017000969A8091600090916100B901EBD1B8012D
:10018000E9D10497049708F4979A809160009091C0
:100190006100B901DFD1B701DDD10297029708F400
:1001A000C09A8091600090916100B901D3D1B601ED
:1001B000D1D1019709F4C19A929A8FE697E10197FC
:1001C000F1F700C0000082B3807F82BB88B38C7FD0
:1001D00088BB82B38F7382BBE0916000F0916100B5
:1001E000EE0FFF1FEE59FF4F80819181B901B2D10F
:1001F000CB01BE01AFD10897089708F4969AE09119
:100200006000F0916100EE0FFF1FEE59FF4F8081FB
:100210009181B9019FD1CB01B8019CD1049704977A
:1002200008F4979AE0916000F0916100EE0FFF1FD3
:10023000EE59FF4F80819181B9018CD1CB01B7017B
:1002400089D10297029708F4C09AE0916000F0917A
:100250006100EE0FFF1FEE59FF4F80819181B901C0
:1002600079D1CB01B60176D1019709F4C19A919A5F
:100270008FE697E10197F1F700C0000082B3807F1D
:1002800082BB88B38C7F88BB82B38F7382BBE091C3
:100290006000F0916100EE0FFF1FEE59FF4F80816B
:1002A0009181B90157D1BE0155D10897089708F43B
:1002B000969AE0916000F0916100EE0FFF1FEE59F9
:1002C000FF4F80819181B90145D1B80143D1049795
:1002D000049708F4979AE0916000F0916100EE0FA6
:1002E000FF1FEE59FF4F80819181B90133D1B701D2
:1002F00031D10297029708F4C09AE0916000F09122
:100300006100EE0FFF1FEE59FF4F80819181B9010F
:1003100021D1B6011FD1019709F4C19A909A8FE6B5
:1003200097E10197F1F700C00000C5CEDF91CF91B2
:100330001F910F91FF90EF90DF90CF9008951F9243
:100340000F920FB60F9211242F933F934F935F9309
:100350006F937F938F939F93AF93BF93EF93FF938D
:10036000F89481B38F6081BB82B38F6082BB87B307
:10037000836087BB81B3806C81BB88B38C7F88BB73
:1003800082B38F7382BB809160009091610001976E
:100390009093610080936000789479DE8091600092
:1003A0009091610097FF01C0F894FF91EF91BF9188
:1003B000AF919F918F917F916F915F914F913F91FD
:1003C0002F910F900FBE0F901F901895F8948EB537
:1003D00088608EBD89B7806189BF87ED8BBD8BE159
:1003E0008ABD8EB584608EBDC8E0D0E009E410E01F
:1003F000F894D0936100C0936000C59882B3807F69
:1004000082BB88B38C7F88BB82B38F7382BBBB9A5D
:10041000C39A2FEF4EE984E2215040408040E1F73B
:1004200000C00000C398BD9898E29A95F1F7B5997D
:10043000FECFE1E8F5E03197F1F700C0000080E081
:1004400090E020E030E0B59B47C0FCEDFA95F1F775
:10045000BD9AE0ECF2E03197F1F700C00000BD98E2
:10046000F4E0FA95F1F740E050E0B599FECF20E0D6
:1004700030E0BA0161507109B59B1CC024303105D0
:10048000ECF46730710520F4FB01ED5EFF4F099439
:10049000019614C0029612C0049610C008960EC0B1
:1004A00040960CC080960AC0805C9F4F07C0805861
:1004B0009F4F04C0E4E0EA95F1F702C025E630E082
:1004C0002F5F3F4F24363105BCF24F5F5F4F4830FE
:1004D000510559F620EE31E0F4E0FA95F1F72F5F7F
:1004E0003F4F203E41E034070CF4ADCFC397E1F419
:1004F000109369000093680082E190E0B7DD84E327
:1005000090E0B4DD86E590E0B1DD88E790E0AEDD17
:100510008AE990E0ABDD8CEB90E0A8DD8EED90E019
:10052000A5DD80EF90E0A2DD78948FEF9EE9E4E214
:1005300081509040E040E1F700C00000F894C39A79
:10054000FFEF2EE944E2F15020404040E1F700C0C7
:1005500000004ECF97FB072E16F4009406D077FDCF
:1005600008D00BD007FC05D03EF4909581959F4FA5
:100570000895709561957F4F0895AA1BBB1B51E1AB
:1005800007C0AA1FBB1FA617B70710F0A61BB70B03
:10059000881F991F5A95A9F780959095BC01CD01A8
:0605A0000895F894FFCF5E
:0205A60004004F
:00000001FF
