:1000000012C019C018C017C016C015C014C013C044
:1000100012C011C010C00FC00EC00DC00CC00BC06C
:100020000AC009C008C011241FBECFE5D4E0DEBF5E
:10003000CDBF02D055C0E4CF93988B9A8FE995E05D
:100040000197F1F700C000008B9890EF9A95F1F7B7
:1000500080B38BEE94E00197F1F700C0000094E0CC
:100060009A95F1F793988B988399FECF8FE995E055
:100070000197F1F700C0000080E090E0839B27C06B
:100080009CED9A95F1F78B9A80EC92E00197F1F74D
:1000900000C000008B9889E392E00197F1F700C05F
:1000A00000008399FECF20E230E080E090E0839B67
:1000B00002C088E790E044E04A95F1F7019688375E
:1000C0009105ACF32150310981F780EE91E024E0F5
:1000D0002A95F1F70196803E41E094077CF2C2CF69
:0400E000F894FFCFC2
:00000001FF
