:1000000012C02CC02BC02AC029C028C07CC126C069
:1000100025C024C023C022C021C020C01FC01EC0D4
:100020001DC01CC01BC011241FBECFE5D4E0DEBF25
:10003000CDBF10E0A0E6B0E0EAE8F5E002C0059030
:100040000D92A236B107D9F720E0A2E6B0E001C0D8
:100050001D92AC36B207E1F706D295C2D1CFCF924E
:10006000DF92EF92FF920F931F93CF93DF932AE0DB
:1000700030E0C0E1CC2ED12CC8E0D0E004E010E0AC
:1000800082E0E82EF12C809160009091610097FF52
:1000900009C0DF91CF911F910F91FF90EF90DF90FA
:1000A000CF90089582B3807F82BB88B38C7F88BB5A
:1000B00082B38F7382BB8091600090916100B9011F
:1000C0003BD2CB01B60138D20897089708F4969A2C
:1000D0008091600090916100B9012ED2CB01BE01E8
:1000E0002BD20497049708F4979A8091600090911E
:1000F0006100B90121D2CB01B8011ED2029702974B
:1001000008F4C09A8091600090916100B90114D206
:10011000CB01B70111D2019709F4C19A939A8FE9E3
:100120009FE00197F1F700C0000082B3807F82BB9F
:1001300088B38C7F88BB82B38F7382BB8091600051
:1001400090916100B901F8D10897089708F4969A40
:100150008091600090916100B901EED1BE01ECD1B7
:100160000497049708F4979A809160009091610039
:10017000B901E2D1B801E0D10297029708F4C09A20
:100180008091600090916100B901D6D1B701D4D1BE
:10019000019709F4C19A929A8FE99FE00197F1F7CC
:1001A00000C0000082B3807F82BB88B38C7F88BB95
:1001B00082B38F7382BBE0916000F0916100EE0F1B
:1001C000FF1FEC59FF4F80819181B901B5D1CB015F
:1001D000B601B2D10897089708F4969AE0916000AA
:1001E000F0916100EE0FFF1FEC59FF4F808191816C
:1001F000B901A2D1CB01BE019FD10497049708F4A5
:10020000979AE0916000F0916100EE0FFF1FEC59AA
:10021000FF4F80819181B9018FD1CB01B8018CD181
:100220000297029708F4C09AE0916000F091610093
:10023000EE0FFF1FEC59FF4F80819181B9017CD1F6
:10024000CB01B70179D1019709F4C19A919A8FE94D
:100250009FE00197F1F700C0000082B3807F82BB6E
:1002600088B38C7F88BB82B38F7382BBE0916000C0
:10027000F0916100EE0FFF1FEC59FF4F80819181DB
:10028000B9015AD10897089708F4969AE09160004E
:10029000F0916100EE0FFF1FEC59FF4F80819181BB
:1002A000B9014AD1BE0148D10497049708F4979A3E
:1002B000E0916000F0916100EE0FFF1FEC59FF4FDD
:1002C00080819181B90138D1B80136D10297029766
:1002D00008F4C09AE0916000F0916100EE0FFF1FFA
:1002E000EC59FF4F80819181B90126D1B70124D10A
:1002F000019709F4C19A909A8FE99FE00197F1F76D
:1003000000C00000C0CE1F920F920FB60F921124B2
:100310002F933F934F935F936F937F938F939F930D
:10032000AF93BF93EF93FF93F89481B38F6081BB3A
:1003300082B38F6082BB87B3836087BB81B3806CDD
:1003400081BB88B38C7F88BB82B38F7382BB809163
:10035000600090916100019790936100809360002C
:1003600078947DDE809160009091610097FF01C0DC
:10037000F894FF91EF91BF91AF919F918F917F91F1
:100380006F915F914F913F912F910F900FBE0F9002
:100390001F9018958091620090916300892B41F421
:1003A000BD9881E090E0909363008093620008958F
:1003B000BD9A10926300109262000895C598BD9A8C
:1003C0008FEB93E00197F1F700C00000BD9890EA31
:1003D0009A95F1F786B3E7E4F3E03197F1F700C0BF
:1003E000000080720895C598BD9A92E09A95F1F741
:1003F00000C08111BD9880EA8A95F1F7BD980895F3
:10040000C598BD9A82E08A95F1F700C0BD9895E243
:100410009A95F1F7000086B398E79A95F1F785FB76
:10042000882780F90895CF93DF93D9E0C0E0D150B9
:1004300021F48C2FDF91CF910895E2DF20E8829F95
:10044000C0011124C695C82BF2CFCF93DF93C82FDC
:10045000D9E0D15019F4DF91CF9108958C2F81709C
:10046000C2DFC695F6CFF8948EB588608EBD89B789
:10047000806189BF87E58BBD8BE18ABD8EB58460C5
:100480008EBD82B3807F82BB88B38C7F88BB82B3F2
:100490008F7382BBC5982FEF80E792E02150804098
:1004A0009040E1F700C00000C8E0D0E0F894D0939D
:1004B0006100C093600082DF8111FDCF83E3C5DF5F
:1004C000B2DF90E09093650080936400ACDF90E031
:1004D0009093670080936600A6DF90E09093690098
:1004E00080936800A0DF90E090936B0080936A0097
:1004F0009ADF90E090936D0080936C0094DF90E021
:1005000090936F0080936E008EDF90E09093710067
:100510008093700088DF90E0909373008093720066
:1005200078942FEF89E698E1215080409040E1F7E0
:1005300000C00000F894BACF97FB072E16F4009481
:1005400006D077FD08D00BD007FC05D03EF490957F
:1005500081959F4F0895709561957F4F0895AA1BCF
:10056000BB1B51E107C0AA1FBB1FA617B70710F09E
:10057000A61BB70B881F991F5A95A9F780959095D0
:0A058000BC01CD010895F894FFCFEF
:02058A0004006B
:00000001FF
