:1000000012C024C023C022C021C020C07AC11EC09B
:100010001DC01CC01BC01AC019C018C017C016C014
:1000200015C014C013C011241FBECFE5D4E0DEBF3D
:10003000CDBF10E0A0E6B0E0EEE6F4E002C005902F
:100040000D92A23AB107D9F7B1D10FC2D9CFCF9251
:10005000DF92EF92FF920F931F93CF93DF932AE0EB
:1000600030E0C0E1D0E008E010E084E0E82EF12CC0
:1000700092E0C92ED12C8091A0009091A100181679
:1000800019060CF035C182B3807F82BB88B38C7FA8
:1000900088BB82B38F7382BB8091A0009091A10036
:1000A000B901BCD1CB01BE01B9D10897089708F4BA
:1000B000969A8091A0009091A100B901AFD1CB0197
:1000C000B801ACD10497049708F4979A8091A000E6
:1000D0009091A100B901A2D1CB01B7019FD10297A4
:1000E000029708F4C09A8091A0009091A100B901F4
:1000F00095D1CB01B60192D1019709F4C19A939A97
:100100008FE99FE00197F1F700C0000082B3807F84
:1001100082BB88B38C7F88BB82B38F7382BB809194
:10012000A0009091A100B90179D1BE0177D10897C3
:10013000089708F4969A8091A0009091A100B901C7
:100140006DD1B8016BD10497049708F4979A809108
:10015000A0009091A100B90161D1B7015FD10297D0
:10016000029708F4C09A8091A0009091A100B90173
:1001700055D1B60153D1019709F4C19A929A8FE9EA
:100180009FE00197F1F700C0000082B3807F82BB3F
:1001900088B38C7F88BB82B38F7382BBE091A00051
:1001A000F091A100EE0FFF1FE05AFF4F8081918177
:1001B000B90134D1CB01BE0131D10897089708F4B9
:1001C000969AE091A000F091A100EE0FFF1FE05A77
:1001D000FF4F80819181B90121D1CB01B8011ED19E
:1001E0000497049708F4979AE091A000F091A10079
:1001F000EE0FFF1FE05AFF4F80819181B9010ED1B0
:10020000CB01B7010BD10297029708F4C09AE09195
:10021000A000F091A100EE0FFF1FE05AFF4F808178
:100220009181B901FBD0CB01B601F8D0019709F457
:10023000C19A919A8FE99FE00197F1F700C0000001
:1002400082B3807F82BB88B38C7F88BB82B38F737D
:1002500082BBE091A000F091A100EE0FFF1FE05AD9
:10026000FF4F80819181B901D9D0BE01D7D00897C5
:10027000089708F4969AE091A000F091A100EE0F83
:10028000FF1FE05AFF4F80819181B901C7D0B801AB
:10029000C5D00497049708F4979AE091A000F091D4
:1002A000A100EE0FFF1FE05AFF4F80819181B9013D
:1002B000B5D0B701B3D00297029708F4C09AE09185
:1002C000A000F091A100EE0FFF1FE05AFF4F8081C8
:1002D0009181B901A3D0B601A1D0019709F4C19AC7
:1002E000909A8FE99FE00197F1F700C00000C3CE1C
:1002F000DF91CF911F910F91FF90EF90DF90CF9002
:1003000008951F920F920FB60F9211242F933F93CF
:100310004F935F936F937F938F939F93AF93BF930D
:10032000EF93FF93F89481B38F6081BB82B38F60AA
:1003300082BB87B3836087BB81B3806C81BB88B38A
:100340008C7F88BB82B38F7382BB8091A000909119
:10035000A100029731F48EE190E09093A100809388
:10036000A0008091A0009091A10001979093A1001E
:100370008093A00078946BDE2FEF83ED90E3215003
:1003800080409040E1F700C00000FF91EF91BF91E5
:10039000AF919F918F917F916F915F914F913F911D
:1003A0002F910F900FBE0F901F901895F8948EB557
:1003B00088608EBD89B7806189BF87E58BBD8BE181
:1003C0008ABD8EB584608EBD80B387E493E00197CB
:1003D000F1F700C0000078949FEF23ED30E39150D7
:1003E00020403040E1F700C00000F89482B3807FE5
:1003F00082BB88B38C7F88BB82B38F7382BB969A93
:1004000082B38F6082BB84EB92E42FE031E08150B5
:10041000904020403040D9F700C0E5CF97FB072E31
:1004200016F4009406D077FD08D00BD007FC05D059
:100430003EF4909581959F4F0895709561957F4FFB
:100440000895AA1BBB1B51E107C0AA1FBB1FA6171B
:10045000B70710F0A61BB70B881F991F5A95A9F76D
:0E04600080959095BC01CD010895F894FFCFD2
:10046E0017002D00170011002B003F004100220045
:10047E0052000E00020004000E000D000C000B00D6
:10048E000A0009000800070006000500040003002A
:10049E00020001000000000000000000000000004B
:0204AE00060046
:00000001FF
