:1000000012C02CC02BC02AC029C028C028C026C0BE
:1000100025C075C023C022C021C020C01FC01EC083
:100020001DC01CC01BC011241FBECFE5D4E0DEBF25
:10003000CDBF10E0A0E6B0E0E4E8F6E002C0059035
:100040000D92A439B107D9F720E0A4E9B0E001C0CE
:100050001D92A33AB207E1F7ABD10BC3D1CF1F92E8
:100060001FB61F9211242F933F934F935F938F934B
:100070009F93EF93FF93F89420916800309169006B
:10008000215031093093690020936800E3E0F0E0EB
:10009000E21BF30BEE0FFF1FE556FF4F8081482F49
:1000A00042954F7050E050936100409360008F7014
:1000B00090E090936300809362008181482F429585
:1000C0004F7050E050936500409364008F7090E053
:1000D0009093670080936600121613061CF089B790
:1000E0008F7E89BF7894FF91EF919F918F915F915F
:1000F0004F913F912F911F901FBE1F9018951F92F7
:100100001FB61F9211248F939F93EF93FF93F89440
:1001100082B3836682BB8091990090919A0082306D
:10012000910509F443C0B4F4009741F1019791F1AE
:100130008091990090919A00019690939A008093F3
:1001400099007894FF91EF919F918F911F901FBE1E
:100150001F901895039761F7E0916600F091670092
:10016000EE0FFF1FE459FF4F808188BB95988FEFFA
:100170009FEF90939A0080939900DACFE09160000E
:10018000F0916100EE0FFF1FE459FF4F808188BBA3
:100190009698CECFE0916200F0916300EE0FFF1FC2
:1001A000E459FF4F808188BB9198C2CFE0916400F1
:1001B000F0916500EE0FFF1FE459FF4F808188BB6F
:1001C0009098B6CF80916A0090916B00019741F0B2
:1001D000AA9A81E090E090936B0080936A00089562
:1001E000AA9810926B0010926A000895AC98A49A95
:1001F0008FEB93E00197F1F700C00000A49890EA1C
:100200009A95F1F783B3E7E4F3E03197F1F700C093
:10021000000080710895AC98A49A92E09A95F1F745
:1002200000C08111A49880EA8A95F1F7A4980895F6
:10023000AC98A49A82E08A95F1F700C0A49895E260
:100240009A95F1F7000083B398E79A95F1F78295B4
:1002500081700895CF93DF93D9E0C0E0D15021F4AD
:100260008C2FDF91CF910895E3DF20E8829FC001BA
:100270001124C695C82BF2CFCF93DF93C82FD9E0B6
:10028000D15019F4DF91CF9108958C2F8170C3DF85
:10029000C695F6CFF894A49822E02A95F1F700C00D
:1002A0009C9BFECF9C99FECF85EB93E00197F1F7E5
:1002B00000C0000030E020E090E080E09C9B56C051
:1002C000E2E9EA95F1F700C0A49AE5EDF1E0319793
:1002D000F1F700C00000A498E7ECF0E03197F1F7E7
:1002E00000C0000050E040E09C99FECF30E020E0EC
:1002F000BA01615071099C9B37C06730710520F4C9
:10030000FB01E55CFC4F099401962EE630E02F5F7F
:100310003F4F243131057CF34730510511F09C9B50
:10032000FECF4F5F5F4F48305105F1F620EE31E0D0
:100330002F5F3F4F203E41E034070CF4BFCF8333A3
:100340009105C9F4A89A08950296DFCF0496DDCFEF
:100350000896DBCF4096D9CF8096D7CF805C9F4F51
:10036000D4CF80589F4FD1CF0000D1CFF2E0FA9583
:10037000F1F700C0DDCFA99A08959C01AB9AA4982B
:100380009C9BFECF89E0815011F4AB9808959C9915
:10039000FECFA49A92E09A95F1F700C020FDA498B0
:1003A0009DE29A95F1F70000A49835952795EBCF3B
:1003B000F89483B7836083BF89B7816089BF89B7A9
:1003C000806189BF8EB588608EBD8EB584608EBD1C
:1003D00097EB9BBD8BE18ABD2FEF27BB81B3836673
:1003E00081BB82B3836682BB28BB82B38C7982BB1C
:1003F00084B38B6084BB2FEF30E782E02150304024
:100400008040E1F700C0000010929A00109299001D
:10041000F8942FEF30E782E0215030408040E1F740
:1004200000C00000109261001092600023E130E0F3
:1004300030936300209362002EE030E0309365003B
:100440002093640022E130E030936700209366003F
:100450009BBD84E090E0909369008093680089B729
:10046000806189BFF89487EBD82E04E010E091E119
:10047000E92EF12C2EE0A22EB12C35E0832E912C0A
:10048000F894A0DE9FEF20E732E09150204030400A
:10049000E1F700C0000096DE8FEF90E722E0815088
:1004A00090402040E1F700C000008CDE3FEF80E785
:1004B00092E0315080409040E1F700C0000082DEC1
:1004C0002FEF30E782E0215030408040E1F700C05C
:1004D000000078DE9FEF20E732E09150204030406E
:1004E000E1F700C000006EDE8FEF90E722E0815060
:1004F00090402040E1F700C0000064DE3FEF80E75D
:1005000092E0315080409040E1F700C000006EDE84
:100510008111FDCFF89483E3AFDEDBBC109369005B
:100520000093680097DE80939B0094DE80939C008C
:1005300091DE80939D008EDE80939E008BDE809303
:100540009F0088DE8093A00085DE8093A10082DE7C
:100550008093A20078942FEF31E18AE72150304058
:100560008040E1F700C00000F894F0926100E09252
:100570006000B0926300A092620090926500809249
:100580006400F0926700E092660078949FEF29E69D
:1005900038E1915020403040E1F700C00000F8946D
:1005A000CAE0D0E0109369000093680073DEC3973F
:1005B000E9F780919B0090E0E0DE80919C0090E064
:1005C000DCDE80919D0090E0D8DE80919E0090E07E
:1005D000D4DE80919F0090E0D0DE8091A00090E07A
:1005E000CCDE8091A10090E0C8DE8091A20090E076
:1005F000C4DE2197B9F678948FEF93ED20E3815014
:1006000090402040E1F700C00000F894DBDD3FEFB0
:1006100084E39CE0315080409040E1F700C000004E
:10062000D1DD2FEF34E38CE0215030408040E1F702
:1006300000C00000C7DD9FEF24E33CE09150204064
:100640003040E1F700C00000BDDD8FEF94E32CE007
:10065000815090402040E1F700C00000B3DD3FEF43
:1006600084E39CE0315080409040E1F700C00000FE
:1006700007CFF894FFCF68CE69CE6ACE6BCE6CCE32
:040680006DCE6FCEFE
:10068400010002000300040004000100AF000C009C
:10069400B5009D001E009B00BB000D00BF009F0025
:1006A4003F00BA00A300BC00B30033003000B20026
:0406B40038003700D3
:00000001FF
