:1000000012C02CC02BC02AC029C028C080C026C066
:1000100025C024C023C022C021C020C01FC01EC0D4
:100020001DC01CC01BC011241FBECFE5D4E0DEBF25
:10003000CDBF10E0A0E6B0E0E6E8F4E002C0059035
:100040000D92A639B107D9F720E0A6E9B0E001C0CA
:100050001D92A53AB207E1F756D113C2D1CF8091D4
:100060006A0090916B0097FD51C082B3836682BB9A
:10007000E0916200F0916300EE0FFF1FE259FF4F25
:10008000808188BB96988FE99FE00197F1F700C0C7
:10009000000082B3836682BBE0916400F09165004A
:1000A000EE0FFF1FE259FF4F808188BB91988FE9C7
:1000B0009FE00197F1F700C0000082B3836682BB26
:1000C000E0916600F0916700EE0FFF1FE259FF4FCD
:1000D000808188BB90988FE99FE00197F1F700C07D
:1000E000000082B3836682BBE0916800F0916900F2
:1000F000EE0FFF1FE259FF4F808188BB95988FE973
:100100009FE00197F1F700C00000A9CF08951F926A
:100110000F920FB60F9211242F933F934F935F933B
:100120006F937F938F939F93AF93BF93EF93FF93BF
:10013000F89480916A0090916B00019790936B0006
:1001400080936A0078948BDF80916A0090916B00B5
:1001500097FF01C0F894FF91EF91BF91AF919F91EC
:100160008F917F916F915F914F913F912F910F9060
:100170000FBE0F901F90189580916C0090916D00AC
:10018000019741F0AA9A81E090E090936D008093EE
:100190006C000895AA9810926D0010926C0008955A
:1001A000AD98A59A8FEB93E00197F1F700C000009E
:1001B000A59890EA9A95F1F783B3E7E4F3E03197D5
:1001C000F1F700C0000080720895AD98A59A92E002
:1001D0009A95F1F700C08111A59880EA8A95F1F708
:1001E000A5980895AD98A59A82E08A95F1F700C088
:1001F000A59895E29A95F1F7000083B398E79A9550
:10020000F1F785FB882780F90895CF93DF93D9E034
:10021000C0E0D15041F0E6DF20E8829FC001112408
:10022000C695C82BF6CF8C2FDF91CF910895CF9331
:10023000DF93D82FC9E0C15029F08D2F8170C5DF21
:10024000D695F9CFDF91CF910895AADF8111FDCF27
:100250008CECEDDF84E4EBDF8FDFC4DF8823E9F390
:100260008BDF9EDF8CECE3DF8EEBE1DFCEDF809374
:10027000A100CBDF8093A20093DF8091A100409189
:10028000A200242F277090E1299F90011124982F1C
:1002900092959F70292B209396008093A000409305
:1002A00097008F703EE3839FC00111249093A400B8
:1002B0008093A30061E070E0709361006093600040
:1002C000487F483F99F43FE7321B3093960068EE31
:1002D00073E09B01281B390BC901BFD09093A40088
:1002E0008093A3001092610010926000089583E350
:1002F00089B910BC88E08AB986E880BD08955D9B05
:10030000FECF8CB90895F8948EB588608EBD89B7FC
:10031000806189BF87EB8BBD8BE18ABD8EB5846020
:100320008EBD9FEF97BB81B3836681BB82B383662B
:1003300082BB98BB82B38C7982BB2FEF83ED90E3B5
:10034000215080409040E1F700C0000078942FEFEA
:1003500083ED90E3215080409040E1F700C0000021
:10036000F894C1E1D0E08EE0C82ED12C95E0E92EC2
:10037000F12C08E010E0F894FFDE2FEF80E792E028
:10038000215080409040E1F700C00000F5DE2FEFE3
:1003900080E792E0215080409040E1F700C00000EB
:1003A000EBDE2FEF80E792E0215080409040E1F7B4
:1003B00000C00000E1DE2FEF80E792E02150804096
:1003C0009040E1F700C00000D0936300C09362004A
:1003D000D0926500C0926400F0926700E0926600DF
:1003E000D0936900C093680010936B0000936A007B
:1003F0007894C2DE2FEF84E39CE02150804090404F
:10040000E1F700C00000B8DE2FEF84E39CE021504C
:1004100080409040E1F700C00000AEDE2FEF84E3A3
:100420009CE0215080409040E1F700C00000A4DE35
:100430002FEF84E39CE0215080409040E1F700C022
:1004400000009ADE2FEF84E39CE021508040904032
:10045000E1F700C00000F8948ECFAA1BBB1B51E14E
:1004600007C0AA1FBB1FA617B70710F0A61BB70B24
:10047000881F991F5A95A9F780959095BC01CD01C9
:060480000895F894FFCF7F
:100486000100010002000300040008000100010051
:1004960002000400080010009B00200040008000BD
:1004A600F600EE003E009C007A00B3008E000000CD
:0604B600B200000000008E
:00000001FF
