:1000000012C02CC02BC02AC029C028C080C026C066
:1000100025C024C023C022C021C020C01FC01EC0D4
:100020001DC01CC01BC011241FBECFE5D4E0DEBF25
:10003000CDBF10E0A0E6B0E0EAECF4E002C005902D
:100040000D92A639B107D9F720E0A6E9B0E001C0CA
:100050001D92A53AB207E1F77FD135C2D1CF809189
:100060006A0090916B0097FD51C082B3836682BB9A
:10007000E0916200F0916300EE0FFF1FE259FF4F25
:10008000808188BB96988FE99FE00197F1F700C0C7
:10009000000082B3836682BBE0916400F09165004A
:1000A000EE0FFF1FE259FF4F808188BB91988FE9C7
:1000B0009FE00197F1F700C0000082B3836682BB26
:1000C000E0916600F0916700EE0FFF1FE259FF4FCD
:1000D000808188BB90988FE99FE00197F1F700C07D
:1000E000000082B3836682BBE0916800F0916900F2
:1000F000EE0FFF1FE259FF4F808188BB95988FE973
:100100009FE00197F1F700C00000A9CF08951F926A
:100110000F920FB60F9211242F933F934F935F933B
:100120006F937F938F939F93AF93BF93EF93FF93BF
:10013000F89480916A0090916B00019790936B0006
:1001400080936A00789480916A0090916B00E3E05C
:10015000F0E0E81BF90BEE0FFF1FE856FF4F808120
:10016000282F22952F7030E0309363002093620097
:100170008F7090E090936500809364008181282FB8
:1001800022952F7030E030936700209366008F70C7
:1001900090E0909369008093680061DF80916A002D
:1001A00090916B0097FF01C0F894FF91EF91BF9180
:1001B000AF919F918F917F916F915F914F913F91FF
:1001C0002F910F900FBE0F901F90189580916C008B
:1001D00090916D00019741F0AA9A81E090E0909390
:1001E0006D0080936C000895AA9810926D00109293
:1001F0006C000895AC98A49A8FEB93E00197F1F707
:1002000000C00000A49890EA9A95F1F783B3E7E460
:10021000F3E03197F1F700C0000080710895AC98C9
:10022000A49A92E09A95F1F700C08111A49880EA0F
:100230008A95F1F7A4980895AC98A49A82E08A95DB
:10024000F1F700C0A49895E29A95F1F7000083B306
:1002500098E79A95F1F7829581700895CF93DF938F
:10026000D9E0C0E0D15041F0E7DF20E8829FC00133
:100270001124C695C82BF6CF8C2FDF91CF9108950E
:10028000CF93DF93D82FC9E0C15029F08D2F817013
:10029000C6DFD695F9CFDF91CF910895ABDF8111FD
:1002A000FDCF8CECEDDF84E4EBDF90DFC5DF88234E
:1002B000E9F38CDF9FDF8CECE3DF8EEBE1DFCEDF59
:1002C0008093A100CBDF8093A20094DF8091A100F6
:1002D0004091A200242F277090E1299F90011124C2
:1002E000982F92959F70292B209396008093A000C1
:1002F000409397008F703EE3839FC0011124909339
:10030000A4008093A30061E070E0709361006093AB
:100310006000487F483F99F43FE7321B30939600D6
:1003200068EE73E09B01281B390BC901B8D090938C
:10033000A4008093A30010926100109260000895C1
:1003400083E389B910BC88E08AB986E880BD089546
:100350005D9BFECF8CB90895F8948EB588608EBDF4
:1003600089B7806189BF87EB8BBD8BE18ABD8EB574
:1003700084608EBDA29AAA9A9FEF97BB81B38366D1
:1003800081BB82B3836682BB98BB82B38C7982BB0C
:100390002FEF89E698E1215080409040E1F700C0BE
:1003A0000000C4E0D0E0F89411DF2FEF80E792E086
:1003B000215080409040E1F700C0000007DF2FEFA0
:1003C00080E792E0215080409040E1F700C00000BB
:1003D000FDDE2FEF80E792E0215080409040E1F772
:1003E00000C00000F3DE2FEF80E792E02150804054
:1003F0009040E1F700C00000FDDE8111FDCF83E3F6
:100400003FDFD0936B00C0936A0028DF8093980091
:1004100025DF8093990022DF80939A001FDF80936D
:100420009B0078942FEF83ED90E321508040904023
:10043000E1F700C00000F894C9DE2FEF84E39CE0F0
:10044000215080409040E1F700C00000BFDE2FEF58
:1004500084E39CE0215080409040E1F700C0000020
:10046000B5DE2FEF84E39CE0215080409040E1F71F
:1004700000C00000ABDE2FEF84E39CE02150804001
:100480009040E1F700C00000A1DE2FEF84E39CE084
:10049000215080409040E1F700C0000084CFAA1BAB
:1004A000BB1B51E107C0AA1FBB1FA617B70710F05F
:1004B000A61BB70B881F991F5A95A9F78095909591
:0A04C000BC01CD010895F894FFCFB0
:1004CA000100010002000300040004000100AF0063
:1004DA000B00B5009D0082009B00BB000C00BF0012
:1004EA009F003F00BA00B300BC00B40092002F0086
:0604FA00B100000000004B
:00000001FF
