:1000000019C033C032C031C030C02FC087C02DC02E
:100010002CC02BC02AC029C028C027C026C025C09C
:1000200024C023C022C07BC17CC17DC17EC17FC1F1
:1000300080C182C111241FBECFE5D4E0DEBFCDBF99
:1000400010E0A0E6B0E0EAE2F7E002C005900D9211
:10005000A639B107D9F720E0A6E9B0E001C01D92AA
:10006000A53AB207E1F7EED15EC3CACF80916A002C
:1000700090916B0097FD51C082B3836682BBE09183
:100080006200F0916300EE0FFF1FE259FF4F808185
:1000900088BB96988FE99FE00197F1F700C00000B8
:1000A00082B3836682BBE0916400F0916500EE0F3D
:1000B000FF1FE259FF4F808188BB91988FE99FE035
:1000C0000197F1F700C0000082B3836682BBE09124
:1000D0006600F0916700EE0FFF1FE259FF4F80812D
:1000E00088BB90988FE99FE00197F1F700C000006E
:1000F00082B3836682BBE0916800F0916900EE0FE5
:10010000FF1FE259FF4F808188BB95988FE99FE0E0
:100110000197F1F700C00000A9CF08951F920F9238
:100120000FB60F9211242F933F934F935F936F93CA
:100130007F938F939F93AF93BF93EF93FF93F89425
:1001400080916A0090916B00019790936B0080936F
:100150006A00789480916A0090916B00E3E0F0E08F
:10016000E81BF90BEE0FFF1FE856FF4F8081282F89
:1001700022952F7030E030936300209362008F70DF
:1001800090E090936500809364008181282F2295F0
:100190002F7030E030936700209366008F7090E0FE
:1001A000909369008093680061DF80916A0090916C
:1001B0006B0097FF01C0F894FF91EF91BF91AF9151
:1001C0009F918F917F916F915F914F913F912F916F
:1001D0000F900FBE0F901F90189580916C0090911A
:1001E0006D00019741F0AA9A81E090E090936D0034
:1001F00080936C000895AA9810926D0010926C0084
:100200000895AC98A49A8FEB93E00197F1F700C0A2
:100210000000A49890EA9A95F1F783B3E7E4F3E03D
:100220003197F1F700C0000080710895AC98A49A4E
:1002300092E09A95F1F700C08111A49880EA8A951E
:10024000F1F7A4980895AC98A49A82E08A95F1F702
:1002500000C0A49895E29A95F1F7000083B398E75F
:100260009A95F1F7829581700895CF93DF93D9E045
:10027000C0E0D15041F0E7DF20E8829FC0011124A7
:10028000C695C82BF6CF8C2FDF91CF910895CF93D1
:10029000DF93D82FC9E0C15029F08D2F8170C6DFC0
:1002A000D695F9CFDF91CF910895A4982AE12A95A8
:1002B000F1F700C09C99FECF8BEA93E00197F1F72C
:1002C00000C0000020E030E080E090E09C9B4AC04D
:1002D000E2E9EA95F1F700C0A49AE5EDF1E0319783
:1002E000F1F700C00000A498F2E0FA95F1F700C021
:1002F00040E050E09C99FECF20E030E0BA01615030
:1003000071099C9B1CC024303105F4F467307105E1
:1003100020F4FB01ED5EFF4F0994019615C0029693
:1003200013C0049611C008960FC040960DC0809669
:100330000BC0805C9F4F08C080589F4F05C0E2E013
:10034000EA95F1F700C002C025E630E02F5F3F4F8D
:1003500024363105B4F24F5F5F4F4830510551F6F6
:1003600020EE31E0F2E0FA95F1F700C02F5F3F4F49
:10037000203E41E034070CF4A9CF08959C01A498D5
:1003800099E0915061F09C99FECF20FFA49A8AE2F7
:100390008A95F1F700C0A49835952795F2CF089576
:1003A00030DF8111FDCF8CEC72DF84E470DF15DF6C
:1003B0004ADF8823E9F311DF24DF8CEC68DF8EEB62
:1003C00066DF53DF8093A10050DF8093A20019DF26
:1003D0008091A1004091A200242F277090E1299FD5
:1003E00090011124982F92959F70292B20939600AD
:1003F0008093A000409397008F703EE3839FC001DD
:1004000011249093A4008093A30061E070E07093A6
:10041000610060936000487F483F99F43FE7321BDA
:100420003093960068EE73E09B01281B390BC901DD
:1004300066D19093A4008093A30010926100109263
:1004400060000895F8948EB588608EBD89B780618C
:1004500089BF87EB8BBD8BE18ABD8EB584608EBD75
:10046000A29AAA9A9FEF97BB81B3836681BB82B39E
:10047000836682BB98BB82B38C7982BB2FEF89E6FF
:1004800098E1215080409040E1F700C00000C4E0B6
:10049000D0E017E501E083E2F82E95E4E92E27E6A7
:1004A000D22E39E8C32E4BEAB42E5DECA52E6FEEAA
:1004B000962E77EB872EF89490DE2FEF80E792E070
:1004C000215080409040E1F700C0000086DE2FEF11
:1004D00080E792E0215080409040E1F700C00000AA
:1004E0007CDE2FEF80E792E0215080409040E1F7E2
:1004F00000C0000072DE2FEF80E792E021508040C4
:100500009040E1F700C000007CDE8111FDCF83E365
:10051000BEDED0936B00C0936A001BBD00939800B1
:10052000F0929900E0929A00D0929B00C0929C00B9
:10053000B0929D00A0929E0090929F0078942FEF21
:1005400083ED90E3215080409040E1F700C000002F
:10055000F8948BBCD0936B00C0936A0086DE8093C6
:10056000980083DE8093990080DE80939A007DDE80
:1005700080939B007ADE80939C0077DE80939D00C1
:1005800074DE80939E0071DE80939F0078942FEF3D
:1005900083ED90E3215080409040E1F700C00000DF
:1005A000F89483DEC397E9F38091980090E0E6DE4B
:1005B0008091990090E0E2DE80919A0090E0DEDE8A
:1005C00080919B0090E0DADE80919C0090E0D6DE86
:1005D00080919D0090E0D2DE80919E0090E0CEDE82
:1005E00080919F0090E0CADE2FEF84E39CE02150D1
:1005F00080409040E1F700C0000057DEC397E9F368
:100600008091980090E0BADE8091990090E0B6DE8B
:1006100080919A0090E0B2DE80919B0090E0AEDE87
:1006200080919C0090E0AADE80919D0090E0A6DE83
:1006300080919E0090E0A2DE80919F0090E09EDE7F
:100640002FEF84E39CE0215080409040E1F700C010
:1006500000002BDEC397E9F38091980090E08EDED6
:100660008091990090E08ADE80919A0090E086DE89
:1006700080919B0090E082DE80919C0090E07EDE85
:1006800080919D0090E07ADE80919E0090E076DE81
:1006900080919F0090E072DEA0DD2FEF84E39CE06C
:1006A000215080409040E1F700C0000096DD2FEF20
:1006B00084E39CE0215080409040E1F700C00000BE
:1006C0008CDD2FEF84E39CE0215080409040E1F7E7
:1006D00000C0000082DD2FEF84E39CE021508040C9
:1006E0009040E1F700C0000078DD2FEF84E39CE04C
:1006F000215080409040E1F700C00000DCCEAA1BF2
:10070000BB1B51E107C0AA1FBB1FA617B70710F0FC
:10071000A61BB70B881F991F5A95A9F7809590952E
:0A072000BC01CD010895F894FFCF4D
:10072A000100010002000300040004000100AF0000
:10073A000C00B5009D001E009B00BB000D00BF0011
:10074A009F003F00BA00A300BC00B3003300300092
:06075A00B2003800370078
:00000001FF
