:1000000019C033C032C031C030C02FC02FC02DC086
:100010002CC07FC02AC029C028C027C026C025C048
:1000200024C023C022C07BC17CC17DC17EC17FC1F1
:1000300080C182C111241FBECFE5D4E0DEBFCDBF99
:1000400010E0A0E6B0E0ECE6F6E002C005900D920C
:10005000A439B107D9F720E0A4E9B0E001C01D92AE
:10006000A33AB207E1F7A1D1FFC2CACF1F920F9204
:100070000FB60F9211242F933F934F935F938F935B
:100080009F93EF93FF93F89480916800909169009B
:100090009C01215031093093690020936800E4E00D
:1000A000F0E0E81BF90BEE0FFF1FE956FF4F8081D0
:1000B000482F42954F7050E050936100409360008C
:1000C0008F7090E090936300809362008181482F4D
:1000D00042954F7050E050936500409364008F70DC
:1000E00090E09093670080936600121613061CF050
:1000F00089B78F7E89BF7894FF91EF919F918F91FF
:100100005F914F913F912F910F900FBE0F901F90D5
:1001100018951F920F920FB60F9211248F939F93F1
:10012000EF93FF93F89482B3836682BB809194002F
:10013000909195008130910531F174F4892BD1F5BE
:10014000E0916000F0916100EE0FFF1FE459FF4F56
:10015000808188BB96982EC08230910501F103976B
:1001600049F5E0916600F0916700EE0FFF1FE4593A
:10017000FF4F808188BB95988FEF9FEF90939500FC
:100180008093940017C0E0916200F0916300EE0F3D
:10019000FF1FE459FF4F808188BB91980BC0E0910D
:1001A0006400F0916500EE0FFF1FE459FF4F80815E
:1001B00088BB9098809194009091950001969093BF
:1001C0009500809394007894FF91EF919F918F9187
:1001D0000F900FBE0F901F90189580916A0090911C
:1001E0006B00019741F0AA9A81E090E090936B0038
:1001F00080936A000895AA9810926B0010926A008A
:100200000895AC98A49A8FEB93E00197F1F700C0A2
:100210000000A49890EA9A95F1F783B3E7E4F3E03D
:100220003197F1F700C0000080710895AC98A49A4E
:1002300092E09A95F1F700C08111A49880EA8A951E
:10024000F1F7A4980895AC98A49A82E08A95F1F702
:1002500000C0A49895E29A95F1F7000083B398E75F
:100260009A95F1F7829581700895CF93DF93D9E045
:10027000C0E0D15041F0E7DF20E8829FC0011124A7
:10028000C695C82BF6CF8C2FDF91CF910895CF93D1
:10029000DF93D82FC9E0C15029F08D2F8170C6DFC0
:1002A000D695F9CFDF91CF910895A4982AE12A95A8
:1002B000F1F700C09C99FECF8BEA93E00197F1F72C
:1002C00000C0000020E030E080E090E09C9B4AC04D
:1002D000E2E9EA95F1F700C0A49AE5EDF1E0319783
:1002E000F1F700C00000A498F2E0FA95F1F700C021
:1002F00040E050E09C99FECF20E030E0BA01615030
:1003000071099C9B1CC024303105F4F467307105E1
:1003100020F4FB01ED5EFF4F0994019615C0029693
:1003200013C0049611C008960FC040960DC0809669
:100330000BC0805C9F4F08C080589F4F05C0E2E013
:10034000EA95F1F700C002C025E630E02F5F3F4F8D
:1003500024363105B4F24F5F5F4F4830510551F6F6
:1003600020EE31E0F2E0FA95F1F700C02F5F3F4F49
:10037000203E41E034070CF4A9CF08959C01A498D5
:1003800099E0915089F09C99FECFA49A82E08A95D9
:10039000F1F700C020FDA4988AE68A95F1F700C025
:1003A000A49835952795EDCF0895F89483B7836089
:1003B00083BF89B7816089BF89B7806189BF8EB5E6
:1003C00088608EBD8EB584608EBD87EB8BBD8BE162
:1003D0008ABDA29AAA9A9FEF97BB81B3836681BB1D
:1003E00082B3836682BB98BB82B38C7982BB2FEFCA
:1003F00089E698E1215080409040E1F700C000007C
:1004000084E090E0909369008093680087E28BBD60
:1004100081E08093970083E28093980085E4809345
:10042000990087E680939A0089E880939B008BEA85
:1004300080939C008DEC80939D008FEE80939E00B6
:1004400078942FEF8BE792E9215080409040E1F7BC
:1004500000C0000080E190E0909361008093600014
:100460008EE090E090936300809362008AE090E0D9
:1004700090936500809364008DE090E09093670016
:100480008093660087EBF82E04E010E093E1C92E1C
:10049000D12C2EE0A22EB12C31E1832E912CEE2412
:1004A000E39442E0742E53E0652E64E0562E75E02E
:1004B000472EE6E03E2EF7E02F2E8FDE2FEF80E76F
:1004C00092E0215080409040E1F700C0000085DEBE
:1004D0002FEF80E792E0215080409040E1F700C08C
:1004E00000007BDE2FEF80E792E0215080409040BB
:1004F000E1F700C0000071DE2FEF80E792E02150AD
:1005000080409040E1F700C00000109295001092EA
:100510009400FBBC109369000093680089B7806168
:1005200089BF2FEF82E597E0215080409040E1F7AE
:1005300000C0000078942FEF83ED90E321508040BD
:100540009040E1F700C0000010926100109260003E
:10055000D0926300C0926200B0926500A0926400E5
:1005600090926700809266002FEF83ED90E3215018
:1005700080409040E1F700C0000010929700E092A8
:1005800098007092990060929A0050929B0040925D
:100590009C0030929D0020929E00CAE0D0E0109313
:1005A00069000093680081DEC397E9F380919700AA
:1005B00090E0E4DE8091980090E0E0DE8091990088
:1005C00090E0DCDE80919A0090E0D8DE80919B0084
:1005D00090E0D4DE80919C0090E0D0DE80919D0080
:1005E00090E0CCDE80919E0090E0C8DE2FEF84E3A7
:1005F0009CE0215080409040E1F700C0000021972E
:1006000071F6EBDD2FEF84E39CE0215080409040B9
:10061000E1F700C00000E1DD2FEF84E39CE0215012
:1006200080409040E1F700C00000D7DD2FEF84E369
:100630009CE0215080409040E1F700C00000CDDDFB
:100640002FEF84E39CE0215080409040E1F700C010
:100650000000C3DD2FEF84E39CE0215080409040F8
:0C066000E1F700C0000029CFF894FFCFA4
:10066C00010002000300040004000100AF000C00B4
:10067C00B5009D001E009B00BB000D00BF009F003D
:10068C003F00BA00A300BC00B30033003000B2003E
:04069C0038003700EB
:00000001FF
